:020000020000FC
:10000000C0E1C0930080C0E2C0930180C0E2C09311
:100010000280C0E1C0930380CC2740E150E260E061
:1000200080E008EF0AB900270BB900EF04B90027F8
:10003000112770E013B1113021F0123041F00C940F
:100040001A0023B120FF0C942D000C94210023B141
:1000500021FF0C9432000C942700040F0BB9639518
:100060000C943D00050F0BB983950C943D0008EFEF
:100070000BB977270C941A0000007395713041F08A
:10008000723091F07330E1F0743031F1753081F1FC
:10009000A091008060FD4A1759F580FD5A1741F57F
:1000A000743029F30C941A00A091018060FD4A1766
:1000B000F9F480FD5A17E1F47430C9F20C941A0077
:1000C000A091028060FD4A1799F480FD5A1781F4CF
:1000D000743069F20C941A00A091038060FD4A17F5
:1000E00039F480FD5A1721F4743009F20C941A0087
:0C00F00000270BB977270C941A000000C1
:00000001FF
